{
  "contractName": "AntiDoping",
  "abi": [
    {
      "constant": true,
      "inputs": [],
      "name": "name",
      "outputs": [
        {
          "name": "",
          "type": "string"
        }
      ],
      "payable": false,
      "stateMutability": "view",
      "type": "function"
    },
    {
      "constant": true,
      "inputs": [],
      "name": "reportCount",
      "outputs": [
        {
          "name": "",
          "type": "uint256"
        }
      ],
      "payable": false,
      "stateMutability": "view",
      "type": "function"
    },
    {
      "constant": true,
      "inputs": [
        {
          "name": "",
          "type": "uint256"
        }
      ],
      "name": "checks",
      "outputs": [
        {
          "name": "id",
          "type": "uint256"
        },
        {
          "name": "playerName1",
          "type": "string"
        },
        {
          "name": "isSuccess",
          "type": "string"
        }
      ],
      "payable": false,
      "stateMutability": "view",
      "type": "function"
    },
    {
      "constant": true,
      "inputs": [
        {
          "name": "",
          "type": "uint256"
        }
      ],
      "name": "reports",
      "outputs": [
        {
          "name": "id",
          "type": "uint256"
        },
        {
          "name": "playerName",
          "type": "string"
        },
        {
          "name": "playerAge",
          "type": "string"
        },
        {
          "name": "bloodGroup",
          "type": "string"
        },
        {
          "name": "drugName",
          "type": "string"
        },
        {
          "name": "quantity",
          "type": "int256"
        },
        {
          "name": "owner",
          "type": "address"
        },
        {
          "name": "doped",
          "type": "bool"
        },
        {
          "name": "isValid",
          "type": "string"
        }
      ],
      "payable": false,
      "stateMutability": "view",
      "type": "function"
    },
    {
      "inputs": [],
      "payable": false,
      "stateMutability": "nonpayable",
      "type": "constructor"
    },
    {
      "anonymous": false,
      "inputs": [
        {
          "indexed": false,
          "name": "id",
          "type": "uint256"
        },
        {
          "indexed": false,
          "name": "playerName",
          "type": "string"
        },
        {
          "indexed": false,
          "name": "playerAge",
          "type": "string"
        },
        {
          "indexed": false,
          "name": "bloodGroup",
          "type": "string"
        },
        {
          "indexed": false,
          "name": "drugName",
          "type": "string"
        },
        {
          "indexed": false,
          "name": "quantity",
          "type": "int256"
        },
        {
          "indexed": false,
          "name": "owner",
          "type": "address"
        },
        {
          "indexed": false,
          "name": "doped",
          "type": "bool"
        }
      ],
      "name": "ReportCreated",
      "type": "event"
    },
    {
      "anonymous": false,
      "inputs": [
        {
          "indexed": false,
          "name": "id",
          "type": "uint256"
        },
        {
          "indexed": false,
          "name": "playerName",
          "type": "string"
        },
        {
          "indexed": false,
          "name": "playerAge",
          "type": "string"
        },
        {
          "indexed": false,
          "name": "bloodGroup",
          "type": "string"
        },
        {
          "indexed": false,
          "name": "drugName",
          "type": "string"
        },
        {
          "indexed": false,
          "name": "quantity",
          "type": "int256"
        },
        {
          "indexed": false,
          "name": "owner",
          "type": "address"
        },
        {
          "indexed": false,
          "name": "doped",
          "type": "bool"
        }
      ],
      "name": "AccessReport",
      "type": "event"
    },
    {
      "constant": false,
      "inputs": [
        {
          "name": "_playerName",
          "type": "string"
        },
        {
          "name": "_playerAge",
          "type": "string"
        },
        {
          "name": "_bloodGroup",
          "type": "string"
        },
        {
          "name": "_drugName",
          "type": "string"
        },
        {
          "name": "_quantity",
          "type": "int256"
        }
      ],
      "name": "createReport",
      "outputs": [],
      "payable": false,
      "stateMutability": "nonpayable",
      "type": "function"
    },
    {
      "constant": false,
      "inputs": [
        {
          "name": "_id",
          "type": "uint256"
        }
      ],
      "name": "accessReport",
      "outputs": [],
      "payable": true,
      "stateMutability": "payable",
      "type": "function"
    },
    {
      "constant": false,
      "inputs": [
        {
          "name": "id1",
          "type": "uint256"
        }
      ],
      "name": "checkReport",
      "outputs": [
        {
          "name": "isVal",
          "type": "string"
        }
      ],
      "payable": false,
      "stateMutability": "nonpayable",
      "type": "function"
    }
  ],
  "bytecode": "0x608060405260006001553480156200001657600080fd5b506040805190810160405280601181526020017f416e7469446f70696e67205265706f727400000000000000000000000000000081525060009080519060200190620000649291906200006b565b506200011a565b828054600181600116156101000203166002900490600052602060002090601f016020900481019282601f10620000ae57805160ff1916838001178555620000df565b82800160010185558215620000df579182015b82811115620000de578251825591602001919060010190620000c1565b5b509050620000ee9190620000f2565b5090565b6200011791905b8082111562000113576000816000905550600101620000f9565b5090565b90565b611ef6806200012a6000396000f3fe608060405260043610610083576000357c0100000000000000000000000000000000000000000000000000000000900463ffffffff16806306fdde0314610088578063185c6f8414610118578063618e7bd914610143578063641551e61461026a5780638dee95ff1461031e578063914f15bb146105b5578063c942adf7146105e3575b600080fd5b34801561009457600080fd5b5061009d610893565b6040518080602001828103825283818151815260200191508051906020019080838360005b838110156100dd5780820151818401526020810190506100c2565b50505050905090810190601f16801561010a5780820380516001836020036101000a031916815260200191505b509250505060405180910390f35b34801561012457600080fd5b5061012d610931565b6040518082815260200191505060405180910390f35b34801561014f57600080fd5b5061017c6004803603602081101561016657600080fd5b8101908080359060200190929190505050610937565b604051808481526020018060200180602001838103835285818151815260200191508051906020019080838360005b838110156101c65780820151818401526020810190506101ab565b50505050905090810190601f1680156101f35780820380516001836020036101000a031916815260200191505b50838103825284818151815260200191508051906020019080838360005b8381101561022c578082015181840152602081019050610211565b50505050905090810190601f1680156102595780820380516001836020036101000a031916815260200191505b509550505050505060405180910390f35b34801561027657600080fd5b506102a36004803603602081101561028d57600080fd5b8101908080359060200190929190505050610a91565b6040518080602001828103825283818151815260200191508051906020019080838360005b838110156102e35780820151818401526020810190506102c8565b50505050905090810190601f1680156103105780820380516001836020036101000a031916815260200191505b509250505060405180910390f35b34801561032a57600080fd5b506105b3600480360360a081101561034157600080fd5b810190808035906020019064010000000081111561035e57600080fd5b82018360208201111561037057600080fd5b8035906020019184600183028401116401000000008311171561039257600080fd5b91908080601f016020809104026020016040519081016040528093929190818152602001838380828437600081840152601f19601f820116905080830192505050505050509192919290803590602001906401000000008111156103f557600080fd5b82018360208201111561040757600080fd5b8035906020019184600183028401116401000000008311171561042957600080fd5b91908080601f016020809104026020016040519081016040528093929190818152602001838380828437600081840152601f19601f8201169050808301925050505050505091929192908035906020019064010000000081111561048c57600080fd5b82018360208201111561049e57600080fd5b803590602001918460018302840111640100000000831117156104c057600080fd5b91908080601f016020809104026020016040519081016040528093929190818152602001838380828437600081840152601f19601f8201169050808301925050505050505091929192908035906020019064010000000081111561052357600080fd5b82018360208201111561053557600080fd5b8035906020019184600183028401116401000000008311171561055757600080fd5b91908080601f016020809104026020016040519081016040528093929190818152602001838380828437600081840152601f19601f82011690508083019250505050505050919291929080359060200190929190505050610b95565b005b6105e1600480360360208110156105cb57600080fd5b81019080803590602001909291905050506110f0565b005b3480156105ef57600080fd5b5061061c6004803603602081101561060657600080fd5b8101908080359060200190929190505050611946565b604051808a8152602001806020018060200180602001806020018981526020018873ffffffffffffffffffffffffffffffffffffffff1673ffffffffffffffffffffffffffffffffffffffff168152602001871515151581526020018060200186810386528e818151815260200191508051906020019080838360005b838110156106b4578082015181840152602081019050610699565b50505050905090810190601f1680156106e15780820380516001836020036101000a031916815260200191505b5086810385528d818151815260200191508051906020019080838360005b8381101561071a5780820151818401526020810190506106ff565b50505050905090810190601f1680156107475780820380516001836020036101000a031916815260200191505b5086810384528c818151815260200191508051906020019080838360005b83811015610780578082015181840152602081019050610765565b50505050905090810190601f1680156107ad5780820380516001836020036101000a031916815260200191505b5086810383528b818151815260200191508051906020019080838360005b838110156107e65780820151818401526020810190506107cb565b50505050905090810190601f1680156108135780820380516001836020036101000a031916815260200191505b50868103825287818151815260200191508051906020019080838360005b8381101561084c578082015181840152602081019050610831565b50505050905090810190601f1680156108795780820380516001836020036101000a031916815260200191505b509e50505050505050505050505050505060405180910390f35b60008054600181600116156101000203166002900480601f0160208091040260200160405190810160405280929190818152602001828054600181600116156101000203166002900480156109295780601f106108fe57610100808354040283529160200191610929565b820191906000526020600020905b81548152906001019060200180831161090c57829003601f168201915b505050505081565b60015481565b6003602052806000526040600020600091509050806000015490806001018054600181600116156101000203166002900480601f0160208091040260200160405190810160405280929190818152602001828054600181600116156101000203166002900480156109e95780601f106109be576101008083540402835291602001916109e9565b820191906000526020600020905b8154815290600101906020018083116109cc57829003601f168201915b505050505090806002018054600181600116156101000203166002900480601f016020809104026020016040519081016040528092919081815260200182805460018160011615610100020316600290048015610a875780601f10610a5c57610100808354040283529160200191610a87565b820191906000526020600020905b815481529060010190602001808311610a6a57829003601f168201915b5050505050905083565b606060036000838152602001908152602001600020600201600260008481526020019081526020016000206007019080546001816001161561010002031660029004610ade929190611cb9565b50600260008381526020019081526020016000206007018054600181600116156101000203166002900480601f016020809104026020016040519081016040528092919081815260200182805460018160011615610100020316600290048015610b895780601f10610b5e57610100808354040283529160200191610b89565b820191906000526020600020905b815481529060010190602001808311610b6c57829003601f168201915b50505050509050919050565b60606020604051908101604052806000815250905060008651111515610bba57600080fd5b60008351111515610bca57600080fd5b60008451111515610bda57600080fd5b60008551111515610bea57600080fd5b600082131515610bf957600080fd5b60016000815480929190600101919050555067a688906bd8b00000821315610c82576040805190810160405280600781526020017f496e76616c6964000000000000000000000000000000000000000000000000008152506003600060015481526020019081526020016000206002019080519060200190610c7c929190611d40565b50610ce5565b6040805190810160405280600581526020017f56616c69640000000000000000000000000000000000000000000000000000008152506003600060015481526020019081526020016000206002019080519060200190610ce3929190611d40565b505b600154600360006001548152602001908152602001600020600001819055506101206040519081016040528060015481526020018781526020018681526020018581526020018481526020018381526020013373ffffffffffffffffffffffffffffffffffffffff16815260200160001515815260200182815250600260006001548152602001908152602001600020600082015181600001556020820151816001019080519060200190610d9b929190611dc0565b506040820151816002019080519060200190610db8929190611dc0565b506060820151816003019080519060200190610dd5929190611dc0565b506080820151816004019080519060200190610df2929190611dc0565b5060a0820151816005015560c08201518160060160006101000a81548173ffffffffffffffffffffffffffffffffffffffff021916908373ffffffffffffffffffffffffffffffffffffffff16021790555060e08201518160060160146101000a81548160ff021916908315150217905550610100820151816007019080519060200190610e81929190611dc0565b509050507f4dc0e80a1f6ed7e540cfa29c7065711270930ee22e79196e156b78cb03c2dd59600154878787878733600060405180898152602001806020018060200180602001806020018881526020018773ffffffffffffffffffffffffffffffffffffffff1673ffffffffffffffffffffffffffffffffffffffff1681526020018615151515815260200185810385528c818151815260200191508051906020019080838360005b83811015610f45578082015181840152602081019050610f2a565b50505050905090810190601f168015610f725780820380516001836020036101000a031916815260200191505b5085810384528b818151815260200191508051906020019080838360005b83811015610fab578082015181840152602081019050610f90565b50505050905090810190601f168015610fd85780820380516001836020036101000a031916815260200191505b5085810383528a818151815260200191508051906020019080838360005b83811015611011578082015181840152602081019050610ff6565b50505050905090810190601f16801561103e5780820380516001836020036101000a031916815260200191505b50858103825289818151815260200191508051906020019080838360005b8381101561107757808201518184015260208101905061105c565b50505050905090810190601f1680156110a45780820380516001836020036101000a031916815260200191505b509c5050505050505050505050505060405180910390a18560036000600154815260200190815260200160002060010190805190602001906110e7929190611d40565b50505050505050565b6110f8611e40565b60026000838152602001908152602001600020610120604051908101604052908160008201548152602001600182018054600181600116156101000203166002900480601f0160208091040260200160405190810160405280929190818152602001828054600181600116156101000203166002900480156111bb5780601f10611190576101008083540402835291602001916111bb565b820191906000526020600020905b81548152906001019060200180831161119e57829003601f168201915b50505050508152602001600282018054600181600116156101000203166002900480601f01602080910402602001604051908101604052809291908181526020018280546001816001161561010002031660029004801561125d5780601f106112325761010080835404028352916020019161125d565b820191906000526020600020905b81548152906001019060200180831161124057829003601f168201915b50505050508152602001600382018054600181600116156101000203166002900480601f0160208091040260200160405190810160405280929190818152602001828054600181600116156101000203166002900480156112ff5780601f106112d4576101008083540402835291602001916112ff565b820191906000526020600020905b8154815290600101906020018083116112e257829003601f168201915b50505050508152602001600482018054600181600116156101000203166002900480601f0160208091040260200160405190810160405280929190818152602001828054600181600116156101000203166002900480156113a15780601f10611376576101008083540402835291602001916113a1565b820191906000526020600020905b81548152906001019060200180831161138457829003601f168201915b50505050508152602001600582015481526020016006820160009054906101000a900473ffffffffffffffffffffffffffffffffffffffff1673ffffffffffffffffffffffffffffffffffffffff1673ffffffffffffffffffffffffffffffffffffffff1681526020016006820160149054906101000a900460ff16151515158152602001600782018054600181600116156101000203166002900480601f0160208091040260200160405190810160405280929190818152602001828054600181600116156101000203166002900480156114be5780601f10611493576101008083540402835291602001916114be565b820191906000526020600020905b8154815290600101906020018083116114a157829003601f168201915b505050505081525050905060008160c001519050600082600001511180156114ec5750600154826000015111155b15156114f757600080fd5b3373ffffffffffffffffffffffffffffffffffffffff168173ffffffffffffffffffffffffffffffffffffffff161415151561153257600080fd5b8160e0015115151561154357600080fd5b338260c0019073ffffffffffffffffffffffffffffffffffffffff16908173ffffffffffffffffffffffffffffffffffffffff168152505060018260e001901515908115158152505081600260008581526020019081526020016000206000820151816000015560208201518160010190805190602001906115c6929190611dc0565b5060408201518160020190805190602001906115e3929190611dc0565b506060820151816003019080519060200190611600929190611dc0565b50608082015181600401908051906020019061161d929190611dc0565b5060a0820151816005015560c08201518160060160006101000a81548173ffffffffffffffffffffffffffffffffffffffff021916908373ffffffffffffffffffffffffffffffffffffffff16021790555060e08201518160060160146101000a81548160ff0219169083151502179055506101008201518160070190805190602001906116ac929190611dc0565b509050508073ffffffffffffffffffffffffffffffffffffffff166108fc349081150290604051600060405180830381858888f193505050501580156116f6573d6000803e3d6000fd5b507fb1e5683df42423001ac4a531d106d108e0d84eb1d8fb74b5cb4acf5a96be719c60015483602001518460400151856060015186608001518760a0015133600160405180898152602001806020018060200180602001806020018881526020018773ffffffffffffffffffffffffffffffffffffffff1673ffffffffffffffffffffffffffffffffffffffff1681526020018615151515815260200185810385528c818151815260200191508051906020019080838360005b838110156117cb5780820151818401526020810190506117b0565b50505050905090810190601f1680156117f85780820380516001836020036101000a031916815260200191505b5085810384528b818151815260200191508051906020019080838360005b83811015611831578082015181840152602081019050611816565b50505050905090810190601f16801561185e5780820380516001836020036101000a031916815260200191505b5085810383528a818151815260200191508051906020019080838360005b8381101561189757808201518184015260208101905061187c565b50505050905090810190601f1680156118c45780820380516001836020036101000a031916815260200191505b50858103825289818151815260200191508051906020019080838360005b838110156118fd5780820151818401526020810190506118e2565b50505050905090810190601f16801561192a5780820380516001836020036101000a031916815260200191505b509c5050505050505050505050505060405180910390a1505050565b6002602052806000526040600020600091509050806000015490806001018054600181600116156101000203166002900480601f0160208091040260200160405190810160405280929190818152602001828054600181600116156101000203166002900480156119f85780601f106119cd576101008083540402835291602001916119f8565b820191906000526020600020905b8154815290600101906020018083116119db57829003601f168201915b505050505090806002018054600181600116156101000203166002900480601f016020809104026020016040519081016040528092919081815260200182805460018160011615610100020316600290048015611a965780601f10611a6b57610100808354040283529160200191611a96565b820191906000526020600020905b815481529060010190602001808311611a7957829003601f168201915b505050505090806003018054600181600116156101000203166002900480601f016020809104026020016040519081016040528092919081815260200182805460018160011615610100020316600290048015611b345780601f10611b0957610100808354040283529160200191611b34565b820191906000526020600020905b815481529060010190602001808311611b1757829003601f168201915b505050505090806004018054600181600116156101000203166002900480601f016020809104026020016040519081016040528092919081815260200182805460018160011615610100020316600290048015611bd25780601f10611ba757610100808354040283529160200191611bd2565b820191906000526020600020905b815481529060010190602001808311611bb557829003601f168201915b5050505050908060050154908060060160009054906101000a900473ffffffffffffffffffffffffffffffffffffffff16908060060160149054906101000a900460ff1690806007018054600181600116156101000203166002900480601f016020809104026020016040519081016040528092919081815260200182805460018160011615610100020316600290048015611caf5780601f10611c8457610100808354040283529160200191611caf565b820191906000526020600020905b815481529060010190602001808311611c9257829003601f168201915b5050505050905089565b828054600181600116156101000203166002900490600052602060002090601f016020900481019282601f10611cf25780548555611d2f565b82800160010185558215611d2f57600052602060002091601f016020900482015b82811115611d2e578254825591600101919060010190611d13565b5b509050611d3c9190611ea5565b5090565b828054600181600116156101000203166002900490600052602060002090601f016020900481019282601f10611d8157805160ff1916838001178555611daf565b82800160010185558215611daf579182015b82811115611dae578251825591602001919060010190611d93565b5b509050611dbc9190611ea5565b5090565b828054600181600116156101000203166002900490600052602060002090601f016020900481019282601f10611e0157805160ff1916838001178555611e2f565b82800160010185558215611e2f579182015b82811115611e2e578251825591602001919060010190611e13565b5b509050611e3c9190611ea5565b5090565b61012060405190810160405280600081526020016060815260200160608152602001606081526020016060815260200160008152602001600073ffffffffffffffffffffffffffffffffffffffff168152602001600015158152602001606081525090565b611ec791905b80821115611ec3576000816000905550600101611eab565b5090565b9056fea165627a7a72305820ba08a5731eb0a31b8ce4c951dd262910ddb84df7c47578d804722414b2538b7f0029",
  "source": "pragma solidity ^0.5.0;\r\n\r\ncontract AntiDoping{\r\n\tstring public name;\r\n\r\n\tuint public reportCount = 0;\r\n\t\r\n\tmapping(uint => Report) public reports;\r\n\r\n\tstruct Report{\r\n\t\tuint id;\r\n\t\tstring playerName;\r\n\t\tstring playerAge;\r\n\t\tstring bloodGroup;\r\n\t\tstring drugName;\r\n\t\tint quantity;\r\n\t\taddress payable owner;\r\n\t\tbool doped;\r\n\t\tstring isValid;\r\n\t\t\r\n\t}\r\n\tmapping(uint => Check) public checks;\r\n\tstruct Check{\r\n\t\tuint id;\r\n\t\tstring playerName1;\r\n\t\tstring isSuccess;\r\n\t}\r\n\r\n\tconstructor()public {\r\n\t\tname=\"AntiDoping Report\";\r\n\t}\r\n\r\n\tevent ReportCreated(\r\n\t\tuint id,\r\n\t\tstring playerName,\r\n\t\tstring playerAge,\r\n\t\tstring bloodGroup,\r\n\t\tstring drugName,\r\n\t\tint quantity,\r\n\t\taddress payable owner,\r\n\t\tbool doped\r\n\t);\r\n\r\n\tevent AccessReport(\r\n\t\tuint id,\r\n\t\tstring playerName,\r\n\t\tstring playerAge,\r\n\t\tstring bloodGroup,\r\n\t\tstring drugName,\r\n\t\tint quantity,\r\n\t\taddress payable owner,\r\n\t\tbool doped\r\n\r\n\t);\r\n\r\n\tfunction createReport(string memory _playerName, string memory _playerAge, string memory _bloodGroup,string memory _drugName, int _quantity) public {\r\n\t\tstring memory v='';\t\r\n\t//require valid name\r\n\trequire(bytes(_playerName).length > 0);\r\n\trequire(bytes(_drugName).length > 0);\r\n\trequire(bytes(_bloodGroup).length > 0);\r\n\trequire(bytes(_playerAge).length > 0);\r\n\t\r\n\t//require valid quantity\r\n\trequire(_quantity > 0);\r\n\r\n\r\n\r\n\t//make sure para correct\r\n\t\r\n\t//incr productCOunt\r\n\treportCount++;\r\n\r\n\t\tif(_quantity>12000000000000000000)\r\n\t{\r\n\t\tchecks[reportCount].isSuccess='Invalid';\r\n\t\t\t\r\n\t}\r\n\telse\r\n\t{checks[reportCount].isSuccess='Valid';\r\n\t\t\r\n\t}\t\t\tchecks[reportCount].id=reportCount;\t\r\n\t//create report\r\n\treports[reportCount] = Report(reportCount, _playerName, _playerAge, _bloodGroup, _drugName, _quantity, msg.sender, false,v);\r\n\t\r\n\t//trigger an event\r\n\temit ReportCreated(reportCount, _playerName, _playerAge, _bloodGroup, _drugName, _quantity, msg.sender, false);\r\n\t\tchecks[reportCount].playerName1=_playerName;\t\r\n\t\t\r\n}  \r\n\r\n\r\n\r\n\tfunction accessReport(uint _id) public payable{\r\n\t//fetch report\r\n\tReport memory _product = reports[_id];\r\n\r\n\t//fetch owner\r\n\taddress payable _reportGenerator = _product.owner;\r\n\r\n\t//make sure report is valid\r\n\trequire(_product.id > 0 && _product.id <= reportCount);\r\n\r\n\t//make sure buyer has enough ether\r\n\r\n\t//make sure seller is not buyer\r\n\trequire(_reportGenerator !=msg.sender);\r\n\r\n\t//make sure report is not purchased\r\n\trequire(!_product.doped);\r\n\r\n\t//transfer ownership to buyer\r\n\t_product.owner = msg.sender;\r\n\r\n\t//mark as puchased\r\n\t_product.doped=true;\r\n\r\n\t//update report\r\n\treports[_id]=_product;\r\n\r\n\t//pay the seller\r\n\taddress(_reportGenerator).transfer(msg.value);\r\n\r\n\t//trigger event\r\n\temit AccessReport(reportCount, _product.playerName, _product.playerAge, _product.bloodGroup, _product.drugName, _product.quantity, msg.sender, true);\r\n\r\n\t}\r\n\tfunction checkReport(uint id1) public returns(string memory isVal)\r\n\t{\r\n\t\t\r\n\t   \t reports[id1].isValid=checks[id1].isSuccess;\r\n\t    \tisVal=reports[id1].isValid;\r\n\t   \t\r\n\t   \t\r\n\t}\r\n\t\r\n\r\n}",
  "sourcePath": "C:/Users/ROHAN/Downloads/Compressed/antidoping-rohanA_working/src/contracts/AntiDoping.sol",
  "compiler": {
    "name": "solc",
    "version": "0.5.0+commit.1d4f565a.Emscripten.clang"
  },
  "schemaVersion": "3.0.2",
  "updatedAt": "2020-04-07T08:53:31.042Z",
  "devdoc": {
    "methods": {}
  },
  "userdoc": {
    "methods": {}
  }
}