{
  "contractName": "AntiDoping",
  "abi": [
    {
      "constant": true,
      "inputs": [],
      "name": "name",
      "outputs": [
        {
          "name": "",
          "type": "string"
        }
      ],
      "payable": false,
      "stateMutability": "view",
      "type": "function",
      "signature": "0x06fdde03"
    },
    {
      "constant": true,
      "inputs": [],
      "name": "reportCount",
      "outputs": [
        {
          "name": "",
          "type": "uint256"
        }
      ],
      "payable": false,
      "stateMutability": "view",
      "type": "function",
      "signature": "0x185c6f84"
    },
    {
      "constant": true,
      "inputs": [
        {
          "name": "",
          "type": "uint256"
        }
      ],
      "name": "checks",
      "outputs": [
        {
          "name": "id",
          "type": "uint256"
        },
        {
          "name": "playerName1",
          "type": "string"
        },
        {
          "name": "isSuccess",
          "type": "string"
        }
      ],
      "payable": false,
      "stateMutability": "view",
      "type": "function",
      "signature": "0x618e7bd9"
    },
    {
      "constant": true,
      "inputs": [
        {
          "name": "",
          "type": "uint256"
        }
      ],
      "name": "reports",
      "outputs": [
        {
          "name": "id",
          "type": "uint256"
        },
        {
          "name": "playerName",
          "type": "string"
        },
        {
          "name": "playerAge",
          "type": "string"
        },
        {
          "name": "bloodGroup",
          "type": "string"
        },
        {
          "name": "drugName",
          "type": "string"
        },
        {
          "name": "quantity",
          "type": "int256"
        },
        {
          "name": "owner",
          "type": "address"
        },
        {
          "name": "doped",
          "type": "bool"
        },
        {
          "name": "isValid",
          "type": "string"
        }
      ],
      "payable": false,
      "stateMutability": "view",
      "type": "function",
      "signature": "0xc942adf7"
    },
    {
      "inputs": [],
      "payable": false,
      "stateMutability": "nonpayable",
      "type": "constructor",
      "signature": "constructor"
    },
    {
      "anonymous": false,
      "inputs": [
        {
          "indexed": false,
          "name": "id",
          "type": "uint256"
        },
        {
          "indexed": false,
          "name": "playerName",
          "type": "string"
        },
        {
          "indexed": false,
          "name": "playerAge",
          "type": "string"
        },
        {
          "indexed": false,
          "name": "bloodGroup",
          "type": "string"
        },
        {
          "indexed": false,
          "name": "drugName",
          "type": "string"
        },
        {
          "indexed": false,
          "name": "quantity",
          "type": "int256"
        },
        {
          "indexed": false,
          "name": "owner",
          "type": "address"
        },
        {
          "indexed": false,
          "name": "doped",
          "type": "bool"
        }
      ],
      "name": "ReportCreated",
      "type": "event",
      "signature": "0x4dc0e80a1f6ed7e540cfa29c7065711270930ee22e79196e156b78cb03c2dd59"
    },
    {
      "anonymous": false,
      "inputs": [
        {
          "indexed": false,
          "name": "id",
          "type": "uint256"
        },
        {
          "indexed": false,
          "name": "playerName",
          "type": "string"
        },
        {
          "indexed": false,
          "name": "playerAge",
          "type": "string"
        },
        {
          "indexed": false,
          "name": "bloodGroup",
          "type": "string"
        },
        {
          "indexed": false,
          "name": "drugName",
          "type": "string"
        },
        {
          "indexed": false,
          "name": "quantity",
          "type": "int256"
        },
        {
          "indexed": false,
          "name": "owner",
          "type": "address"
        },
        {
          "indexed": false,
          "name": "doped",
          "type": "bool"
        }
      ],
      "name": "AccessReport",
      "type": "event",
      "signature": "0xb1e5683df42423001ac4a531d106d108e0d84eb1d8fb74b5cb4acf5a96be719c"
    },
    {
      "constant": false,
      "inputs": [
        {
          "name": "_playerName",
          "type": "string"
        },
        {
          "name": "_playerAge",
          "type": "string"
        },
        {
          "name": "_bloodGroup",
          "type": "string"
        },
        {
          "name": "_drugName",
          "type": "string"
        },
        {
          "name": "_quantity",
          "type": "int256"
        }
      ],
      "name": "createReport",
      "outputs": [],
      "payable": false,
      "stateMutability": "nonpayable",
      "type": "function",
      "signature": "0x8dee95ff"
    },
    {
      "constant": false,
      "inputs": [
        {
          "name": "_id",
          "type": "uint256"
        }
      ],
      "name": "accessReport",
      "outputs": [],
      "payable": true,
      "stateMutability": "payable",
      "type": "function",
      "signature": "0x914f15bb"
    },
    {
      "constant": false,
      "inputs": [
        {
          "name": "id1",
          "type": "uint256"
        },
        {
          "name": "value",
          "type": "string"
        }
      ],
      "name": "checkReport",
      "outputs": [
        {
          "name": "isVal",
          "type": "string"
        }
      ],
      "payable": false,
      "stateMutability": "nonpayable",
      "type": "function",
      "signature": "0x44da73f8"
    }
  ],
  "bytecode": "0x608060405260006001553480156200001657600080fd5b506040805190810160405280601181526020017f416e7469446f70696e67205265706f727400000000000000000000000000000081525060009080519060200190620000649291906200006b565b506200011a565b828054600181600116156101000203166002900490600052602060002090601f016020900481019282601f10620000ae57805160ff1916838001178555620000df565b82800160010185558215620000df579182015b82811115620000de578251825591602001919060010190620000c1565b5b509050620000ee9190620000f2565b5090565b6200011791905b8082111562000113576000816000905550600101620000f9565b5090565b90565b611e0c806200012a6000396000f3fe608060405260043610610083576000357c0100000000000000000000000000000000000000000000000000000000900463ffffffff16806306fdde0314610088578063185c6f841461011857806344da73f814610143578063618e7bd91461028e5780638dee95ff146103b5578063914f15bb1461064c578063c942adf71461067a575b600080fd5b34801561009457600080fd5b5061009d61092a565b6040518080602001828103825283818151815260200191508051906020019080838360005b838110156100dd5780820151818401526020810190506100c2565b50505050905090810190601f16801561010a5780820380516001836020036101000a031916815260200191505b509250505060405180910390f35b34801561012457600080fd5b5061012d6109c8565b6040518082815260200191505060405180910390f35b34801561014f57600080fd5b506102136004803603604081101561016657600080fd5b81019080803590602001909291908035906020019064010000000081111561018d57600080fd5b82018360208201111561019f57600080fd5b803590602001918460018302840111640100000000831117156101c157600080fd5b91908080601f016020809104026020016040519081016040528093929190818152602001838380828437600081840152601f19601f8201169050808301925050505050505091929192905050506109ce565b6040518080602001828103825283818151815260200191508051906020019080838360005b83811015610253578082015181840152602081019050610238565b50505050905090810190601f1680156102805780820380516001836020036101000a031916815260200191505b509250505060405180910390f35b34801561029a57600080fd5b506102c7600480360360208110156102b157600080fd5b8101908080359060200190929190505050610ab2565b604051808481526020018060200180602001838103835285818151815260200191508051906020019080838360005b838110156103115780820151818401526020810190506102f6565b50505050905090810190601f16801561033e5780820380516001836020036101000a031916815260200191505b50838103825284818151815260200191508051906020019080838360005b8381101561037757808201518184015260208101905061035c565b50505050905090810190601f1680156103a45780820380516001836020036101000a031916815260200191505b509550505050505060405180910390f35b3480156103c157600080fd5b5061064a600480360360a08110156103d857600080fd5b81019080803590602001906401000000008111156103f557600080fd5b82018360208201111561040757600080fd5b8035906020019184600183028401116401000000008311171561042957600080fd5b91908080601f016020809104026020016040519081016040528093929190818152602001838380828437600081840152601f19601f8201169050808301925050505050505091929192908035906020019064010000000081111561048c57600080fd5b82018360208201111561049e57600080fd5b803590602001918460018302840111640100000000831117156104c057600080fd5b91908080601f016020809104026020016040519081016040528093929190818152602001838380828437600081840152601f19601f8201169050808301925050505050505091929192908035906020019064010000000081111561052357600080fd5b82018360208201111561053557600080fd5b8035906020019184600183028401116401000000008311171561055757600080fd5b91908080601f016020809104026020016040519081016040528093929190818152602001838380828437600081840152601f19601f820116905080830192505050505050509192919290803590602001906401000000008111156105ba57600080fd5b8201836020820111156105cc57600080fd5b803590602001918460018302840111640100000000831117156105ee57600080fd5b91908080601f016020809104026020016040519081016040528093929190818152602001838380828437600081840152601f19601f82011690508083019250505050505050919291929080359060200190929190505050610c0c565b005b6106786004803603602081101561066257600080fd5b810190808035906020019092919050505061108d565b005b34801561068657600080fd5b506106b36004803603602081101561069d57600080fd5b81019080803590602001909291905050506118e3565b604051808a8152602001806020018060200180602001806020018981526020018873ffffffffffffffffffffffffffffffffffffffff1673ffffffffffffffffffffffffffffffffffffffff168152602001871515151581526020018060200186810386528e818151815260200191508051906020019080838360005b8381101561074b578082015181840152602081019050610730565b50505050905090810190601f1680156107785780820380516001836020036101000a031916815260200191505b5086810385528d818151815260200191508051906020019080838360005b838110156107b1578082015181840152602081019050610796565b50505050905090810190601f1680156107de5780820380516001836020036101000a031916815260200191505b5086810384528c818151815260200191508051906020019080838360005b838110156108175780820151818401526020810190506107fc565b50505050905090810190601f1680156108445780820380516001836020036101000a031916815260200191505b5086810383528b818151815260200191508051906020019080838360005b8381101561087d578082015181840152602081019050610862565b50505050905090810190601f1680156108aa5780820380516001836020036101000a031916815260200191505b50868103825287818151815260200191508051906020019080838360005b838110156108e35780820151818401526020810190506108c8565b50505050905090810190601f1680156109105780820380516001836020036101000a031916815260200191505b509e50505050505050505050505050505060405180910390f35b60008054600181600116156101000203166002900480601f0160208091040260200160405190810160405280929190818152602001828054600181600116156101000203166002900480156109c05780601f10610995576101008083540402835291602001916109c0565b820191906000526020600020905b8154815290600101906020018083116109a357829003601f168201915b505050505081565b60015481565b6060816002600085815260200190815260200160002060070190805190602001906109fa929190611c56565b50600260008481526020019081526020016000206007018054600181600116156101000203166002900480601f016020809104026020016040519081016040528092919081815260200182805460018160011615610100020316600290048015610aa55780601f10610a7a57610100808354040283529160200191610aa5565b820191906000526020600020905b815481529060010190602001808311610a8857829003601f168201915b5050505050905092915050565b6003602052806000526040600020600091509050806000015490806001018054600181600116156101000203166002900480601f016020809104026020016040519081016040528092919081815260200182805460018160011615610100020316600290048015610b645780601f10610b3957610100808354040283529160200191610b64565b820191906000526020600020905b815481529060010190602001808311610b4757829003601f168201915b505050505090806002018054600181600116156101000203166002900480601f016020809104026020016040519081016040528092919081815260200182805460018160011615610100020316600290048015610c025780601f10610bd757610100808354040283529160200191610c02565b820191906000526020600020905b815481529060010190602001808311610be557829003601f168201915b5050505050905083565b60606020604051908101604052806000815250905060008651111515610c3157600080fd5b60008351111515610c4157600080fd5b60008451111515610c5157600080fd5b60008551111515610c6157600080fd5b600082131515610c7057600080fd5b600160008154809291906001019190505550600154600360006001548152602001908152602001600020600001819055506101206040519081016040528060015481526020018781526020018681526020018581526020018481526020018381526020013373ffffffffffffffffffffffffffffffffffffffff16815260200160001515815260200182815250600260006001548152602001908152602001600020600082015181600001556020820151816001019080519060200190610d38929190611cd6565b506040820151816002019080519060200190610d55929190611cd6565b506060820151816003019080519060200190610d72929190611cd6565b506080820151816004019080519060200190610d8f929190611cd6565b5060a0820151816005015560c08201518160060160006101000a81548173ffffffffffffffffffffffffffffffffffffffff021916908373ffffffffffffffffffffffffffffffffffffffff16021790555060e08201518160060160146101000a81548160ff021916908315150217905550610100820151816007019080519060200190610e1e929190611cd6565b509050507f4dc0e80a1f6ed7e540cfa29c7065711270930ee22e79196e156b78cb03c2dd59600154878787878733600060405180898152602001806020018060200180602001806020018881526020018773ffffffffffffffffffffffffffffffffffffffff1673ffffffffffffffffffffffffffffffffffffffff1681526020018615151515815260200185810385528c818151815260200191508051906020019080838360005b83811015610ee2578082015181840152602081019050610ec7565b50505050905090810190601f168015610f0f5780820380516001836020036101000a031916815260200191505b5085810384528b818151815260200191508051906020019080838360005b83811015610f48578082015181840152602081019050610f2d565b50505050905090810190601f168015610f755780820380516001836020036101000a031916815260200191505b5085810383528a818151815260200191508051906020019080838360005b83811015610fae578082015181840152602081019050610f93565b50505050905090810190601f168015610fdb5780820380516001836020036101000a031916815260200191505b50858103825289818151815260200191508051906020019080838360005b83811015611014578082015181840152602081019050610ff9565b50505050905090810190601f1680156110415780820380516001836020036101000a031916815260200191505b509c5050505050505050505050505060405180910390a1856003600060015481526020019081526020016000206001019080519060200190611084929190611c56565b50505050505050565b611095611d56565b60026000838152602001908152602001600020610120604051908101604052908160008201548152602001600182018054600181600116156101000203166002900480601f0160208091040260200160405190810160405280929190818152602001828054600181600116156101000203166002900480156111585780601f1061112d57610100808354040283529160200191611158565b820191906000526020600020905b81548152906001019060200180831161113b57829003601f168201915b50505050508152602001600282018054600181600116156101000203166002900480601f0160208091040260200160405190810160405280929190818152602001828054600181600116156101000203166002900480156111fa5780601f106111cf576101008083540402835291602001916111fa565b820191906000526020600020905b8154815290600101906020018083116111dd57829003601f168201915b50505050508152602001600382018054600181600116156101000203166002900480601f01602080910402602001604051908101604052809291908181526020018280546001816001161561010002031660029004801561129c5780601f106112715761010080835404028352916020019161129c565b820191906000526020600020905b81548152906001019060200180831161127f57829003601f168201915b50505050508152602001600482018054600181600116156101000203166002900480601f01602080910402602001604051908101604052809291908181526020018280546001816001161561010002031660029004801561133e5780601f106113135761010080835404028352916020019161133e565b820191906000526020600020905b81548152906001019060200180831161132157829003601f168201915b50505050508152602001600582015481526020016006820160009054906101000a900473ffffffffffffffffffffffffffffffffffffffff1673ffffffffffffffffffffffffffffffffffffffff1673ffffffffffffffffffffffffffffffffffffffff1681526020016006820160149054906101000a900460ff16151515158152602001600782018054600181600116156101000203166002900480601f01602080910402602001604051908101604052809291908181526020018280546001816001161561010002031660029004801561145b5780601f106114305761010080835404028352916020019161145b565b820191906000526020600020905b81548152906001019060200180831161143e57829003601f168201915b505050505081525050905060008160c001519050600082600001511180156114895750600154826000015111155b151561149457600080fd5b3373ffffffffffffffffffffffffffffffffffffffff168173ffffffffffffffffffffffffffffffffffffffff16141515156114cf57600080fd5b8160e001511515156114e057600080fd5b338260c0019073ffffffffffffffffffffffffffffffffffffffff16908173ffffffffffffffffffffffffffffffffffffffff168152505060018260e00190151590811515815250508160026000858152602001908152602001600020600082015181600001556020820151816001019080519060200190611563929190611cd6565b506040820151816002019080519060200190611580929190611cd6565b50606082015181600301908051906020019061159d929190611cd6565b5060808201518160040190805190602001906115ba929190611cd6565b5060a0820151816005015560c08201518160060160006101000a81548173ffffffffffffffffffffffffffffffffffffffff021916908373ffffffffffffffffffffffffffffffffffffffff16021790555060e08201518160060160146101000a81548160ff021916908315150217905550610100820151816007019080519060200190611649929190611cd6565b509050508073ffffffffffffffffffffffffffffffffffffffff166108fc349081150290604051600060405180830381858888f19350505050158015611693573d6000803e3d6000fd5b507fb1e5683df42423001ac4a531d106d108e0d84eb1d8fb74b5cb4acf5a96be719c60015483602001518460400151856060015186608001518760a0015133600160405180898152602001806020018060200180602001806020018881526020018773ffffffffffffffffffffffffffffffffffffffff1673ffffffffffffffffffffffffffffffffffffffff1681526020018615151515815260200185810385528c818151815260200191508051906020019080838360005b8381101561176857808201518184015260208101905061174d565b50505050905090810190601f1680156117955780820380516001836020036101000a031916815260200191505b5085810384528b818151815260200191508051906020019080838360005b838110156117ce5780820151818401526020810190506117b3565b50505050905090810190601f1680156117fb5780820380516001836020036101000a031916815260200191505b5085810383528a818151815260200191508051906020019080838360005b83811015611834578082015181840152602081019050611819565b50505050905090810190601f1680156118615780820380516001836020036101000a031916815260200191505b50858103825289818151815260200191508051906020019080838360005b8381101561189a57808201518184015260208101905061187f565b50505050905090810190601f1680156118c75780820380516001836020036101000a031916815260200191505b509c5050505050505050505050505060405180910390a1505050565b6002602052806000526040600020600091509050806000015490806001018054600181600116156101000203166002900480601f0160208091040260200160405190810160405280929190818152602001828054600181600116156101000203166002900480156119955780601f1061196a57610100808354040283529160200191611995565b820191906000526020600020905b81548152906001019060200180831161197857829003601f168201915b505050505090806002018054600181600116156101000203166002900480601f016020809104026020016040519081016040528092919081815260200182805460018160011615610100020316600290048015611a335780601f10611a0857610100808354040283529160200191611a33565b820191906000526020600020905b815481529060010190602001808311611a1657829003601f168201915b505050505090806003018054600181600116156101000203166002900480601f016020809104026020016040519081016040528092919081815260200182805460018160011615610100020316600290048015611ad15780601f10611aa657610100808354040283529160200191611ad1565b820191906000526020600020905b815481529060010190602001808311611ab457829003601f168201915b505050505090806004018054600181600116156101000203166002900480601f016020809104026020016040519081016040528092919081815260200182805460018160011615610100020316600290048015611b6f5780601f10611b4457610100808354040283529160200191611b6f565b820191906000526020600020905b815481529060010190602001808311611b5257829003601f168201915b5050505050908060050154908060060160009054906101000a900473ffffffffffffffffffffffffffffffffffffffff16908060060160149054906101000a900460ff1690806007018054600181600116156101000203166002900480601f016020809104026020016040519081016040528092919081815260200182805460018160011615610100020316600290048015611c4c5780601f10611c2157610100808354040283529160200191611c4c565b820191906000526020600020905b815481529060010190602001808311611c2f57829003601f168201915b5050505050905089565b828054600181600116156101000203166002900490600052602060002090601f016020900481019282601f10611c9757805160ff1916838001178555611cc5565b82800160010185558215611cc5579182015b82811115611cc4578251825591602001919060010190611ca9565b5b509050611cd29190611dbb565b5090565b828054600181600116156101000203166002900490600052602060002090601f016020900481019282601f10611d1757805160ff1916838001178555611d45565b82800160010185558215611d45579182015b82811115611d44578251825591602001919060010190611d29565b5b509050611d529190611dbb565b5090565b61012060405190810160405280600081526020016060815260200160608152602001606081526020016060815260200160008152602001600073ffffffffffffffffffffffffffffffffffffffff168152602001600015158152602001606081525090565b611ddd91905b80821115611dd9576000816000905550600101611dc1565b5090565b9056fea165627a7a72305820e9d11c86020638e56bcbb9947ec4e36cdf9dc4339eb14dc736fbb7d0927497d70029",
  "source": "pragma solidity ^0.5.0;\r\n\r\ncontract AntiDoping{\r\n\tstring public name;\r\n\r\n\tuint public reportCount = 0;\r\n\t\r\n\tmapping(uint => Report) public reports;\r\n\r\n\tstruct Report{\r\n\t\tuint id;\r\n\t\tstring playerName;\r\n\t\tstring playerAge;\r\n\t\tstring bloodGroup;\r\n\t\tstring drugName;\r\n\t\tint quantity;\r\n\t\taddress payable owner;\r\n\t\tbool doped;\r\n\t\tstring isValid;\r\n\t\t\r\n\t}\r\n\tmapping(uint => Check) public checks;\r\n\tstruct Check{\r\n\t\tuint id;\r\n\t\tstring playerName1;\r\n\t\tstring isSuccess;\r\n\t}\r\n\r\n\tconstructor()public {\r\n\t\tname=\"AntiDoping Report\";\r\n\t}\r\n\r\n\tevent ReportCreated(\r\n\t\tuint id,\r\n\t\tstring playerName,\r\n\t\tstring playerAge,\r\n\t\tstring bloodGroup,\r\n\t\tstring drugName,\r\n\t\tint quantity,\r\n\t\taddress payable owner,\r\n\t\tbool doped\r\n\t);\r\n\r\n\tevent AccessReport(\r\n\t\tuint id,\r\n\t\tstring playerName,\r\n\t\tstring playerAge,\r\n\t\tstring bloodGroup,\r\n\t\tstring drugName,\r\n\t\tint quantity,\r\n\t\taddress payable owner,\r\n\t\tbool doped\r\n\r\n\t);\r\n\r\n\tfunction createReport(string memory _playerName, string memory _playerAge, string memory _bloodGroup,string memory _drugName, int _quantity) public {\r\n\t\tstring memory v='';\t\r\n\t//require valid name\r\n\trequire(bytes(_playerName).length > 0);\r\n\trequire(bytes(_drugName).length > 0);\r\n\trequire(bytes(_bloodGroup).length > 0);\r\n\trequire(bytes(_playerAge).length > 0);\r\n\t\r\n\t//require valid quantity\r\n\trequire(_quantity > 0);\r\n\r\n\r\n\r\n\t//make sure para correct\r\n\t\r\n\t//incr productCOunt\r\n\treportCount++;\r\n\t\t\tchecks[reportCount].id=reportCount;\t\r\n\t//create report\r\n\treports[reportCount] = Report(reportCount, _playerName, _playerAge, _bloodGroup, _drugName, _quantity, msg.sender, false,v);\r\n\t\r\n\t//trigger an event\r\n\temit ReportCreated(reportCount, _playerName, _playerAge, _bloodGroup, _drugName, _quantity, msg.sender, false);\r\n\t\tchecks[reportCount].playerName1=_playerName;\t\r\n\t\t\r\n}  \r\n\r\n\r\n\r\n\tfunction accessReport(uint _id) public payable{\r\n\t//fetch report\r\n\tReport memory _product = reports[_id];\r\n\r\n\t//fetch owner\r\n\taddress payable _reportGenerator = _product.owner;\r\n\r\n\t//make sure report is valid\r\n\trequire(_product.id > 0 && _product.id <= reportCount);\r\n\r\n\t//make sure buyer has enough ether\r\n\r\n\t//make sure seller is not buyer\r\n\trequire(_reportGenerator !=msg.sender);\r\n\r\n\t//make sure report is not purchased\r\n\trequire(!_product.doped);\r\n\r\n\t//transfer ownership to buyer\r\n\t_product.owner = msg.sender;\r\n\r\n\t//mark as puchased\r\n\t_product.doped=true;\r\n\r\n\t//update report\r\n\treports[_id]=_product;\r\n\r\n\t//pay the seller\r\n\taddress(_reportGenerator).transfer(msg.value);\r\n\r\n\t//trigger event\r\n\temit AccessReport(reportCount, _product.playerName, _product.playerAge, _product.bloodGroup, _product.drugName, _product.quantity, msg.sender, true);\r\n\r\n\t}\r\n\tfunction checkReport(uint id1,string memory value) public returns(string memory isVal)\r\n\t{\r\n\t\t\r\n\t   \t reports[id1].isValid=value;\r\n\t    \tisVal=reports[id1].isValid;\r\n\t   \t\r\n\t   \t\r\n\t}\r\n\t\r\n\r\n}",
  "sourcePath": "C:/Users/ROHAN/Downloads/Compressed/antidoping-rohanA_working/src/contracts/AntiDoping.sol",
  "compiler": {
    "name": "solc",
    "version": "0.5.0+commit.1d4f565a.Emscripten.clang"
  },
  "schemaVersion": "3.0.2",
  "updatedAt": "2020-05-26T12:10:40.384Z",
  "devdoc": {
    "methods": {}
  },
  "userdoc": {
    "methods": {}
  }
}