{
  "contractName": "AntiDoping",
  "abi": [
    {
      "constant": true,
      "inputs": [],
      "name": "name",
      "outputs": [
        {
          "name": "",
          "type": "string"
        }
      ],
      "payable": false,
      "stateMutability": "view",
      "type": "function",
      "signature": "0x06fdde03"
    },
    {
      "constant": true,
      "inputs": [],
      "name": "reportCount",
      "outputs": [
        {
          "name": "",
          "type": "uint256"
        }
      ],
      "payable": false,
      "stateMutability": "view",
      "type": "function",
      "signature": "0x185c6f84"
    },
    {
      "constant": true,
      "inputs": [
        {
          "name": "",
          "type": "uint256"
        }
      ],
      "name": "reports",
      "outputs": [
        {
          "name": "id",
          "type": "uint256"
        },
        {
          "name": "playerName",
          "type": "string"
        },
        {
          "name": "playerAge",
          "type": "string"
        },
        {
          "name": "bloodGroup",
          "type": "string"
        },
        {
          "name": "drugName",
          "type": "string"
        },
        {
          "name": "quantity",
          "type": "uint256"
        },
        {
          "name": "owner",
          "type": "address"
        },
        {
          "name": "doped",
          "type": "bool"
        }
      ],
      "payable": false,
      "stateMutability": "view",
      "type": "function",
      "signature": "0xc942adf7"
    },
    {
      "inputs": [],
      "payable": false,
      "stateMutability": "nonpayable",
      "type": "constructor",
      "signature": "constructor"
    },
    {
      "anonymous": false,
      "inputs": [
        {
          "indexed": false,
          "name": "id",
          "type": "uint256"
        },
        {
          "indexed": false,
          "name": "playerName",
          "type": "string"
        },
        {
          "indexed": false,
          "name": "playerAge",
          "type": "string"
        },
        {
          "indexed": false,
          "name": "bloodGroup",
          "type": "string"
        },
        {
          "indexed": false,
          "name": "drugName",
          "type": "string"
        },
        {
          "indexed": false,
          "name": "quantity",
          "type": "uint256"
        },
        {
          "indexed": false,
          "name": "owner",
          "type": "address"
        },
        {
          "indexed": false,
          "name": "doped",
          "type": "bool"
        }
      ],
      "name": "ReportCreated",
      "type": "event",
      "signature": "0x1048d6dd0b0d0644840fa7460afda1c428be8e5c4ac91e88d19c100768f96d2f"
    },
    {
      "anonymous": false,
      "inputs": [
        {
          "indexed": false,
          "name": "id",
          "type": "uint256"
        },
        {
          "indexed": false,
          "name": "playerName",
          "type": "string"
        },
        {
          "indexed": false,
          "name": "playerAge",
          "type": "string"
        },
        {
          "indexed": false,
          "name": "bloodGroup",
          "type": "string"
        },
        {
          "indexed": false,
          "name": "drugName",
          "type": "string"
        },
        {
          "indexed": false,
          "name": "quantity",
          "type": "uint256"
        },
        {
          "indexed": false,
          "name": "owner",
          "type": "address"
        },
        {
          "indexed": false,
          "name": "doped",
          "type": "bool"
        }
      ],
      "name": "AccessReport",
      "type": "event",
      "signature": "0x4edd4f312eed2d7f828ca689773eeda0104dd3debf156963099e7cc06300114a"
    },
    {
      "constant": false,
      "inputs": [
        {
          "name": "_playerName",
          "type": "string"
        },
        {
          "name": "_playerAge",
          "type": "string"
        },
        {
          "name": "_bloodGroup",
          "type": "string"
        },
        {
          "name": "_drugName",
          "type": "string"
        },
        {
          "name": "_quantity",
          "type": "uint256"
        }
      ],
      "name": "createReport",
      "outputs": [],
      "payable": false,
      "stateMutability": "nonpayable",
      "type": "function",
      "signature": "0x55b193d2"
    },
    {
      "constant": false,
      "inputs": [
        {
          "name": "_id",
          "type": "uint256"
        }
      ],
      "name": "accessReport",
      "outputs": [],
      "payable": true,
      "stateMutability": "payable",
      "type": "function",
      "signature": "0x914f15bb"
    }
  ],
  "bytecode": "0x608060405260006001553480156200001657600080fd5b506040805190810160405280601181526020017f416e7469446f70696e67205265706f727400000000000000000000000000000081525060009080519060200190620000649291906200006b565b506200011a565b828054600181600116156101000203166002900490600052602060002090601f016020900481019282601f10620000ae57805160ff1916838001178555620000df565b82800160010185558215620000df579182015b82811115620000de578251825591602001919060010190620000c1565b5b509050620000ee9190620000f2565b5090565b6200011791905b8082111562000113576000816000905550600101620000f9565b5090565b90565b611682806200012a6000396000f3fe60806040526004361061006d576000357c0100000000000000000000000000000000000000000000000000000000900463ffffffff16806306fdde0314610072578063185c6f841461010257806355b193d21461012d578063914f15bb146103c4578063c942adf7146103f2575b600080fd5b34801561007e57600080fd5b50610087610636565b6040518080602001828103825283818151815260200191508051906020019080838360005b838110156100c75780820151818401526020810190506100ac565b50505050905090810190601f1680156100f45780820380516001836020036101000a031916815260200191505b509250505060405180910390f35b34801561010e57600080fd5b506101176106d4565b6040518082815260200191505060405180910390f35b34801561013957600080fd5b506103c2600480360360a081101561015057600080fd5b810190808035906020019064010000000081111561016d57600080fd5b82018360208201111561017f57600080fd5b803590602001918460018302840111640100000000831117156101a157600080fd5b91908080601f016020809104026020016040519081016040528093929190818152602001838380828437600081840152601f19601f8201169050808301925050505050505091929192908035906020019064010000000081111561020457600080fd5b82018360208201111561021657600080fd5b8035906020019184600183028401116401000000008311171561023857600080fd5b91908080601f016020809104026020016040519081016040528093929190818152602001838380828437600081840152601f19601f8201169050808301925050505050505091929192908035906020019064010000000081111561029b57600080fd5b8201836020820111156102ad57600080fd5b803590602001918460018302840111640100000000831117156102cf57600080fd5b91908080601f016020809104026020016040519081016040528093929190818152602001838380828437600081840152601f19601f8201169050808301925050505050505091929192908035906020019064010000000081111561033257600080fd5b82018360208201111561034457600080fd5b8035906020019184600183028401116401000000008311171561036657600080fd5b91908080601f016020809104026020016040519081016040528093929190818152602001838380828437600081840152601f19601f820116905080830192505050505050509192919290803590602001909291905050506106da565b005b6103f0600480360360208110156103da57600080fd5b8101908080359060200190929190505050610ad5565b005b3480156103fe57600080fd5b5061042b6004803603602081101561041557600080fd5b810190808035906020019092919050505061127e565b60405180898152602001806020018060200180602001806020018881526020018773ffffffffffffffffffffffffffffffffffffffff1673ffffffffffffffffffffffffffffffffffffffff1681526020018615151515815260200185810385528c818151815260200191508051906020019080838360005b838110156104bf5780820151818401526020810190506104a4565b50505050905090810190601f1680156104ec5780820380516001836020036101000a031916815260200191505b5085810384528b818151815260200191508051906020019080838360005b8381101561052557808201518184015260208101905061050a565b50505050905090810190601f1680156105525780820380516001836020036101000a031916815260200191505b5085810383528a818151815260200191508051906020019080838360005b8381101561058b578082015181840152602081019050610570565b50505050905090810190601f1680156105b85780820380516001836020036101000a031916815260200191505b50858103825289818151815260200191508051906020019080838360005b838110156105f15780820151818401526020810190506105d6565b50505050905090810190601f16801561061e5780820380516001836020036101000a031916815260200191505b509c5050505050505050505050505060405180910390f35b60008054600181600116156101000203166002900480601f0160208091040260200160405190810160405280929190818152602001828054600181600116156101000203166002900480156106cc5780601f106106a1576101008083540402835291602001916106cc565b820191906000526020600020905b8154815290600101906020018083116106af57829003601f168201915b505050505081565b60015481565b600085511115156106ea57600080fd5b600082511115156106fa57600080fd5b6000835111151561070a57600080fd5b6000845111151561071a57600080fd5b60008111151561072957600080fd5b6001600081548092919060010191905055506101006040519081016040528060015481526020018681526020018581526020018481526020018381526020018281526020013373ffffffffffffffffffffffffffffffffffffffff168152602001600015158152506002600060015481526020019081526020016000206000820151816000015560208201518160010190805190602001906107cc929190611553565b5060408201518160020190805190602001906107e9929190611553565b506060820151816003019080519060200190610806929190611553565b506080820151816004019080519060200190610823929190611553565b5060a0820151816005015560c08201518160060160006101000a81548173ffffffffffffffffffffffffffffffffffffffff021916908373ffffffffffffffffffffffffffffffffffffffff16021790555060e08201518160060160146101000a81548160ff0219169083151502179055509050507f1048d6dd0b0d0644840fa7460afda1c428be8e5c4ac91e88d19c100768f96d2f600154868686868633600060405180898152602001806020018060200180602001806020018881526020018773ffffffffffffffffffffffffffffffffffffffff1673ffffffffffffffffffffffffffffffffffffffff1681526020018615151515815260200185810385528c818151815260200191508051906020019080838360005b8381101561095857808201518184015260208101905061093d565b50505050905090810190601f1680156109855780820380516001836020036101000a031916815260200191505b5085810384528b818151815260200191508051906020019080838360005b838110156109be5780820151818401526020810190506109a3565b50505050905090810190601f1680156109eb5780820380516001836020036101000a031916815260200191505b5085810383528a818151815260200191508051906020019080838360005b83811015610a24578082015181840152602081019050610a09565b50505050905090810190601f168015610a515780820380516001836020036101000a031916815260200191505b50858103825289818151815260200191508051906020019080838360005b83811015610a8a578082015181840152602081019050610a6f565b50505050905090810190601f168015610ab75780820380516001836020036101000a031916815260200191505b509c5050505050505050505050505060405180910390a15050505050565b610add6115d3565b60026000838152602001908152602001600020610100604051908101604052908160008201548152602001600182018054600181600116156101000203166002900480601f016020809104026020016040519081016040528092919081815260200182805460018160011615610100020316600290048015610ba05780601f10610b7557610100808354040283529160200191610ba0565b820191906000526020600020905b815481529060010190602001808311610b8357829003601f168201915b50505050508152602001600282018054600181600116156101000203166002900480601f016020809104026020016040519081016040528092919081815260200182805460018160011615610100020316600290048015610c425780601f10610c1757610100808354040283529160200191610c42565b820191906000526020600020905b815481529060010190602001808311610c2557829003601f168201915b50505050508152602001600382018054600181600116156101000203166002900480601f016020809104026020016040519081016040528092919081815260200182805460018160011615610100020316600290048015610ce45780601f10610cb957610100808354040283529160200191610ce4565b820191906000526020600020905b815481529060010190602001808311610cc757829003601f168201915b50505050508152602001600482018054600181600116156101000203166002900480601f016020809104026020016040519081016040528092919081815260200182805460018160011615610100020316600290048015610d865780601f10610d5b57610100808354040283529160200191610d86565b820191906000526020600020905b815481529060010190602001808311610d6957829003601f168201915b50505050508152602001600582015481526020016006820160009054906101000a900473ffffffffffffffffffffffffffffffffffffffff1673ffffffffffffffffffffffffffffffffffffffff1673ffffffffffffffffffffffffffffffffffffffff1681526020016006820160149054906101000a900460ff161515151581525050905060008160c00151905060008260000151118015610e2f5750600154826000015111155b1515610e3a57600080fd5b8160a001513410151515610e4d57600080fd5b3373ffffffffffffffffffffffffffffffffffffffff168173ffffffffffffffffffffffffffffffffffffffff1614151515610e8857600080fd5b8160e00151151515610e9957600080fd5b338260c0019073ffffffffffffffffffffffffffffffffffffffff16908173ffffffffffffffffffffffffffffffffffffffff168152505060018260e00190151590811515815250508160026000858152602001908152602001600020600082015181600001556020820151816001019080519060200190610f1c929190611553565b506040820151816002019080519060200190610f39929190611553565b506060820151816003019080519060200190610f56929190611553565b506080820151816004019080519060200190610f73929190611553565b5060a0820151816005015560c08201518160060160006101000a81548173ffffffffffffffffffffffffffffffffffffffff021916908373ffffffffffffffffffffffffffffffffffffffff16021790555060e08201518160060160146101000a81548160ff0219169083151502179055509050508073ffffffffffffffffffffffffffffffffffffffff166108fc349081150290604051600060405180830381858888f1935050505015801561102e573d6000803e3d6000fd5b507f4edd4f312eed2d7f828ca689773eeda0104dd3debf156963099e7cc06300114a60015483602001518460400151856060015186608001518760a0015133600160405180898152602001806020018060200180602001806020018881526020018773ffffffffffffffffffffffffffffffffffffffff1673ffffffffffffffffffffffffffffffffffffffff1681526020018615151515815260200185810385528c818151815260200191508051906020019080838360005b838110156111035780820151818401526020810190506110e8565b50505050905090810190601f1680156111305780820380516001836020036101000a031916815260200191505b5085810384528b818151815260200191508051906020019080838360005b8381101561116957808201518184015260208101905061114e565b50505050905090810190601f1680156111965780820380516001836020036101000a031916815260200191505b5085810383528a818151815260200191508051906020019080838360005b838110156111cf5780820151818401526020810190506111b4565b50505050905090810190601f1680156111fc5780820380516001836020036101000a031916815260200191505b50858103825289818151815260200191508051906020019080838360005b8381101561123557808201518184015260208101905061121a565b50505050905090810190601f1680156112625780820380516001836020036101000a031916815260200191505b509c5050505050505050505050505060405180910390a1505050565b6002602052806000526040600020600091509050806000015490806001018054600181600116156101000203166002900480601f0160208091040260200160405190810160405280929190818152602001828054600181600116156101000203166002900480156113305780601f1061130557610100808354040283529160200191611330565b820191906000526020600020905b81548152906001019060200180831161131357829003601f168201915b505050505090806002018054600181600116156101000203166002900480601f0160208091040260200160405190810160405280929190818152602001828054600181600116156101000203166002900480156113ce5780601f106113a3576101008083540402835291602001916113ce565b820191906000526020600020905b8154815290600101906020018083116113b157829003601f168201915b505050505090806003018054600181600116156101000203166002900480601f01602080910402602001604051908101604052809291908181526020018280546001816001161561010002031660029004801561146c5780601f106114415761010080835404028352916020019161146c565b820191906000526020600020905b81548152906001019060200180831161144f57829003601f168201915b505050505090806004018054600181600116156101000203166002900480601f01602080910402602001604051908101604052809291908181526020018280546001816001161561010002031660029004801561150a5780601f106114df5761010080835404028352916020019161150a565b820191906000526020600020905b8154815290600101906020018083116114ed57829003601f168201915b5050505050908060050154908060060160009054906101000a900473ffffffffffffffffffffffffffffffffffffffff16908060060160149054906101000a900460ff16905088565b828054600181600116156101000203166002900490600052602060002090601f016020900481019282601f1061159457805160ff19168380011785556115c2565b828001600101855582156115c2579182015b828111156115c15782518255916020019190600101906115a6565b5b5090506115cf9190611631565b5090565b61010060405190810160405280600081526020016060815260200160608152602001606081526020016060815260200160008152602001600073ffffffffffffffffffffffffffffffffffffffff1681526020016000151581525090565b61165391905b8082111561164f576000816000905550600101611637565b5090565b9056fea165627a7a72305820e978900162200d48a8075fbae66d48d8190f514eb2ec53a3a9d2bc94658f7c360029",
  "source": "pragma solidity ^0.5.0;\r\n\r\ncontract AntiDoping{\r\n\tstring public name;\r\n\r\n\tuint public reportCount = 0;\r\n\t\r\n\tmapping(uint => Report) public reports;\r\n\r\n\tstruct Report{\r\n\t\tuint id;\r\n\t\tstring playerName;\r\n\t\tstring playerAge;\r\n\t\tstring bloodGroup;\r\n\t\tstring drugName;\r\n\t\tuint quantity;\r\n\t\taddress payable owner;\r\n\t\tbool doped;\r\n\t}\r\n\r\n\tconstructor()public {\r\n\t\tname=\"AntiDoping Report\";\r\n\t}\r\n\r\n\tevent ReportCreated(\r\n\t\tuint id,\r\n\t\tstring playerName,\r\n\t\tstring playerAge,\r\n\t\tstring bloodGroup,\r\n\t\tstring drugName,\r\n\t\tuint quantity,\r\n\t\taddress payable owner,\r\n\t\tbool doped\r\n\t);\r\n\r\n\tevent AccessReport(\r\n\t\tuint id,\r\n\t\tstring playerName,\r\n\t\tstring playerAge,\r\n\t\tstring bloodGroup,\r\n\t\tstring drugName,\r\n\t\tuint quantity,\r\n\t\taddress payable owner,\r\n\t\tbool doped\r\n\r\n\t);\r\n\r\n\r\n\tfunction createReport(string memory _playerName, string memory _playerAge, string memory _bloodGroup,string memory _drugName, uint _quantity) public {\r\n\t\r\n\t//require valid name\r\n\trequire(bytes(_playerName).length > 0);\r\n\trequire(bytes(_drugName).length > 0);\r\n\trequire(bytes(_bloodGroup).length > 0);\r\n\trequire(bytes(_playerAge).length > 0);\r\n\t\r\n\t//require valid quantity\r\n\trequire(_quantity > 0);\r\n\r\n\t//make sure para correct\r\n\t\r\n\t//incr productCOunt\r\n\treportCount++;\r\n\t\r\n\t//create report\r\n\treports[reportCount] = Report(reportCount, _playerName, _playerAge, _bloodGroup, _drugName, _quantity, msg.sender, false);\r\n\t\r\n\t//trigger an event\r\n\temit ReportCreated(reportCount, _playerName, _playerAge, _bloodGroup, _drugName, _quantity, msg.sender, false);\r\n\t}\r\n\r\n\r\n\tfunction accessReport(uint _id) public payable{\r\n\t//fetch report\r\n\tReport memory _product = reports[_id];\r\n\r\n\t//fetch owner\r\n\taddress payable _reportGenerator = _product.owner;\r\n\r\n\t//make sure report is valid\r\n\trequire(_product.id > 0 && _product.id <= reportCount);\r\n\r\n\t//make sure buyer has enough ether\r\n\trequire(msg.value >= _product.quantity);\r\n\r\n\t//make sure seller is not buyer\r\n\trequire(_reportGenerator !=msg.sender);\r\n\r\n\t//make sure report is not purchased\r\n\trequire(!_product.doped);\r\n\r\n\t//transfer ownership to buyer\r\n\t_product.owner = msg.sender;\r\n\r\n\t//mark as puchased\r\n\t_product.doped=true;\r\n\r\n\t//update report\r\n\treports[_id]=_product;\r\n\r\n\t//pay the seller\r\n\taddress(_reportGenerator).transfer(msg.value);\r\n\r\n\t//trigger event\r\n\temit AccessReport(reportCount, _product.playerName, _product.playerAge, _product.bloodGroup, _product.drugName, _product.quantity, msg.sender, true);\r\n\r\n\t}\r\n\r\n}",
  "sourcePath": "C:/Users/rohan/Desktop/FinalYrProject/marketplace/src/contracts/AntiDoping.sol",
  "compiler": {
    "name": "solc",
    "version": "0.5.0+commit.1d4f565a.Emscripten.clang"
  },
  "schemaVersion": "3.0.2",
  "updatedAt": "2019-12-11T04:19:45.651Z",
  "devdoc": {
    "methods": {}
  },
  "userdoc": {
    "methods": {}
  }
}